{
  "abi": [
    {
      "inputs": [
        {
          "internalType": "uint256",
          "name": "_minDonation",
          "type": "uint256"
        }
      ],
      "stateMutability": "nonpayable",
      "type": "constructor"
    },
    {
      "inputs": [],
      "name": "CryptoStarter__DeadlineHasPassed",
      "type": "error"
    },
    {
      "inputs": [],
      "name": "CryptoStarter__DeadlineShouldBeAFutureDate",
      "type": "error"
    },
    {
      "inputs": [],
      "name": "CryptoStarter__MinimumDonationValueNotMet",
      "type": "error"
    },
    {
      "inputs": [],
      "name": "CryptoStarter__MinimumTargetValueNotMet",
      "type": "error"
    },
    {
      "inputs": [],
      "name": "CryptoStarter__OwnerCantDonateToOwnCampaign",
      "type": "error"
    },
    {
      "inputs": [],
      "name": "CryptoStarter__TransferFailed",
      "type": "error"
    },
    {
      "anonymous": false,
      "inputs": [
        {
          "indexed": false,
          "internalType": "uint256",
          "name": "id",
          "type": "uint256"
        },
        {
          "indexed": false,
          "internalType": "address",
          "name": "owner",
          "type": "address"
        },
        {
          "indexed": false,
          "internalType": "string",
          "name": "title",
          "type": "string"
        },
        {
          "indexed": false,
          "internalType": "string",
          "name": "description",
          "type": "string"
        },
        {
          "indexed": false,
          "internalType": "uint256",
          "name": "target",
          "type": "uint256"
        },
        {
          "indexed": false,
          "internalType": "uint256",
          "name": "deadline",
          "type": "uint256"
        },
        {
          "indexed": false,
          "internalType": "string",
          "name": "image",
          "type": "string"
        }
      ],
      "name": "CreatedCampaign",
      "type": "event"
    },
    {
      "anonymous": false,
      "inputs": [
        {
          "indexed": false,
          "internalType": "uint256",
          "name": "id",
          "type": "uint256"
        },
        {
          "indexed": false,
          "internalType": "address",
          "name": "donator",
          "type": "address"
        },
        {
          "indexed": false,
          "internalType": "uint256",
          "name": "amount",
          "type": "uint256"
        }
      ],
      "name": "DonatedToCampaign",
      "type": "event"
    },
    {
      "inputs": [
        {
          "internalType": "address",
          "name": "_owner",
          "type": "address"
        },
        {
          "internalType": "string",
          "name": "_title",
          "type": "string"
        },
        {
          "internalType": "string",
          "name": "_description",
          "type": "string"
        },
        {
          "internalType": "uint256",
          "name": "_target",
          "type": "uint256"
        },
        {
          "internalType": "uint256",
          "name": "_deadline",
          "type": "uint256"
        },
        {
          "internalType": "string",
          "name": "_image",
          "type": "string"
        }
      ],
      "name": "createCampaign",
      "outputs": [
        {
          "internalType": "uint256",
          "name": "",
          "type": "uint256"
        }
      ],
      "stateMutability": "nonpayable",
      "type": "function"
    },
    {
      "inputs": [
        {
          "internalType": "uint256",
          "name": "_id",
          "type": "uint256"
        }
      ],
      "name": "donateToCampaign",
      "outputs": [],
      "stateMutability": "payable",
      "type": "function"
    },
    {
      "inputs": [
        {
          "internalType": "uint256",
          "name": "_id",
          "type": "uint256"
        }
      ],
      "name": "getCampaign",
      "outputs": [
        {
          "components": [
            {
              "internalType": "address",
              "name": "owner",
              "type": "address"
            },
            {
              "internalType": "string",
              "name": "title",
              "type": "string"
            },
            {
              "internalType": "string",
              "name": "description",
              "type": "string"
            },
            {
              "internalType": "uint256",
              "name": "target",
              "type": "uint256"
            },
            {
              "internalType": "uint256",
              "name": "deadline",
              "type": "uint256"
            },
            {
              "internalType": "uint256",
              "name": "amountCollected",
              "type": "uint256"
            },
            {
              "internalType": "string",
              "name": "image",
              "type": "string"
            },
            {
              "internalType": "address[]",
              "name": "donators",
              "type": "address[]"
            },
            {
              "internalType": "uint256[]",
              "name": "donations",
              "type": "uint256[]"
            }
          ],
          "internalType": "struct CryptoStarter.Campaign",
          "name": "",
          "type": "tuple"
        }
      ],
      "stateMutability": "view",
      "type": "function"
    },
    {
      "inputs": [],
      "name": "getCampaigns",
      "outputs": [
        {
          "components": [
            {
              "internalType": "address",
              "name": "owner",
              "type": "address"
            },
            {
              "internalType": "string",
              "name": "title",
              "type": "string"
            },
            {
              "internalType": "string",
              "name": "description",
              "type": "string"
            },
            {
              "internalType": "uint256",
              "name": "target",
              "type": "uint256"
            },
            {
              "internalType": "uint256",
              "name": "deadline",
              "type": "uint256"
            },
            {
              "internalType": "uint256",
              "name": "amountCollected",
              "type": "uint256"
            },
            {
              "internalType": "string",
              "name": "image",
              "type": "string"
            },
            {
              "internalType": "address[]",
              "name": "donators",
              "type": "address[]"
            },
            {
              "internalType": "uint256[]",
              "name": "donations",
              "type": "uint256[]"
            }
          ],
          "internalType": "struct CryptoStarter.Campaign[]",
          "name": "",
          "type": "tuple[]"
        }
      ],
      "stateMutability": "view",
      "type": "function"
    },
    {
      "inputs": [
        {
          "internalType": "uint256",
          "name": "_id",
          "type": "uint256"
        }
      ],
      "name": "getDonators",
      "outputs": [
        {
          "internalType": "address[]",
          "name": "",
          "type": "address[]"
        },
        {
          "internalType": "uint256[]",
          "name": "",
          "type": "uint256[]"
        }
      ],
      "stateMutability": "view",
      "type": "function"
    },
    {
      "inputs": [],
      "name": "getMinDonation",
      "outputs": [
        {
          "internalType": "uint256",
          "name": "",
          "type": "uint256"
        }
      ],
      "stateMutability": "view",
      "type": "function"
    },
    {
      "inputs": [],
      "name": "getNumberOfCampaigns",
      "outputs": [
        {
          "internalType": "uint256",
          "name": "",
          "type": "uint256"
        }
      ],
      "stateMutability": "view",
      "type": "function"
    }
  ],
  "bytecode": {
    "object": "0x60a060405234801561001057600080fd5b5060405161124e38038061124e83398101604081905261002f91610037565b608052610050565b60006020828403121561004957600080fd5b5051919050565b6080516111d56100796000396000818161014d0152818161025701526106f501526111d56000f3fe6080604052600436106100705760003560e01c80639943e3a11161004e5780639943e3a1146100ee578063a6b036331461011c578063d065bd721461013e578063e4aafc2c1461017157600080fd5b80630fa91fa91461007557806342a4fda8146100ac5780635598f8cc146100c1575b600080fd5b34801561008157600080fd5b50610095610090366004610bc6565b610186565b6040516100a3929190610c1a565b60405180910390f35b6100bf6100ba366004610bc6565b610255565b005b3480156100cd57600080fd5b506100e16100dc366004610bc6565b610408565b6040516100a39190610da9565b3480156100fa57600080fd5b5061010e610109366004610e66565b6106d0565b6040519081526020016100a3565b34801561012857600080fd5b50610131610814565b6040516100a39190610f1f565b34801561014a57600080fd5b507f000000000000000000000000000000000000000000000000000000000000000061010e565b34801561017d57600080fd5b5060015461010e565b600081815260208181526040918290206007810180548451818502810185019095528085526060948594929360080192909184918301828280156101f357602002820191906000526020600020905b81546001600160a01b031681526001909101906020018083116101d5575b505050505091508080548060200260200160405190810160405280929190818152602001828054801561024557602002820191906000526020600020905b815481526020019060010190808311610231575b5050505050905091509150915091565b7f00000000000000000000000000000000000000000000000000000000000000003410156102965760405163209ad3bd60e21b815260040160405180910390fd5b60008181526020819052604090208054336001600160a01b03909116036102d0576040516355b7f21960e11b815260040160405180910390fd5b42816004015410156102f557604051631fda7f5b60e01b815260040160405180910390fd5b600781018054600181810183556000928352602080842090920180546001600160a01b03191633179055600884018054918201815583529082203491018190556005830180549192839261034a908490610f97565b9091555050604080518481523360208201529081018290527f2d90734dbfcbd1befaf912bb776f674b80987078f74057f2115bef12584db3619060600160405180910390a181546040516000916001600160a01b03169083908381818185875af1925050503d80600081146103db576040519150601f19603f3d011682016040523d82523d6000602084013e6103e0565b606091505b505090508061040257604051632f1f472f60e11b815260040160405180910390fd5b50505050565b610410610b71565b600082815260208181526040918290208251610120810190935280546001600160a01b03168352600181018054919284019161044b90610fb0565b80601f016020809104026020016040519081016040528092919081815260200182805461047790610fb0565b80156104c45780601f10610499576101008083540402835291602001916104c4565b820191906000526020600020905b8154815290600101906020018083116104a757829003601f168201915b505050505081526020016002820180546104dd90610fb0565b80601f016020809104026020016040519081016040528092919081815260200182805461050990610fb0565b80156105565780601f1061052b57610100808354040283529160200191610556565b820191906000526020600020905b81548152906001019060200180831161053957829003601f168201915b5050505050815260200160038201548152602001600482015481526020016005820154815260200160068201805461058d90610fb0565b80601f01602080910402602001604051908101604052809291908181526020018280546105b990610fb0565b80156106065780601f106105db57610100808354040283529160200191610606565b820191906000526020600020905b8154815290600101906020018083116105e957829003601f168201915b505050505081526020016007820180548060200260200160405190810160405280929190818152602001828054801561066857602002820191906000526020600020905b81546001600160a01b0316815260019091019060200180831161064a575b50505050508152602001600882018054806020026020016040519081016040528092919081815260200182805480156106c057602002820191906000526020600020905b8154815260200190600101908083116106ac575b5050505050815250509050919050565b6000428310156106f35760405163460ac36160e01b815260040160405180910390fd5b7f00000000000000000000000000000000000000000000000000000000000000008410156107345760405163abf72f4560e01b815260040160405180910390fd5b60018054600090815260208190526040902080546001600160a01b0319166001600160a01b038a1617815590810161076c8882611033565b506002810161077b8782611033565b506003810185905560048101849055600060058201556006810161079f8482611033565b507f6bd0f6b996efd5ce2220662198726c37d5ce694c37bbd65643a83367483a302f6001548989898989896040516107dd97969594939291906110f3565b60405180910390a1600180549060006107f58361115d565b9190505550600180546108089190611176565b98975050505050505050565b6060600060015467ffffffffffffffff81111561083357610833610dc3565b60405190808252806020026020018201604052801561086c57816020015b610859610b71565b8152602001906001900390816108515790505b50905060005b600154811015610b6b57600081815260208181526040918290208251610120810190935280546001600160a01b03168352600181018054919392849290840191906108bc90610fb0565b80601f01602080910402602001604051908101604052809291908181526020018280546108e890610fb0565b80156109355780601f1061090a57610100808354040283529160200191610935565b820191906000526020600020905b81548152906001019060200180831161091857829003601f168201915b5050505050815260200160028201805461094e90610fb0565b80601f016020809104026020016040519081016040528092919081815260200182805461097a90610fb0565b80156109c75780601f1061099c576101008083540402835291602001916109c7565b820191906000526020600020905b8154815290600101906020018083116109aa57829003601f168201915b505050505081526020016003820154815260200160048201548152602001600582015481526020016006820180546109fe90610fb0565b80601f0160208091040260200160405190810160405280929190818152602001828054610a2a90610fb0565b8015610a775780601f10610a4c57610100808354040283529160200191610a77565b820191906000526020600020905b815481529060010190602001808311610a5a57829003601f168201915b5050505050815260200160078201805480602002602001604051908101604052809291908181526020018280548015610ad957602002820191906000526020600020905b81546001600160a01b03168152600190910190602001808311610abb575b5050505050815260200160088201805480602002602001604051908101604052809291908181526020018280548015610b3157602002820191906000526020600020905b815481526020019060010190808311610b1d575b505050505081525050838381518110610b4c57610b4c611189565b6020026020010181905250508080610b639061115d565b915050610872565b50919050565b60405180610120016040528060006001600160a01b0316815260200160608152602001606081526020016000815260200160008152602001600081526020016060815260200160608152602001606081525090565b600060208284031215610bd857600080fd5b5035919050565b600081518084526020808501945080840160005b83811015610c0f57815187529582019590820190600101610bf3565b509495945050505050565b604080825283519082018190526000906020906060840190828701845b82811015610c5c5781516001600160a01b031684529284019290840190600101610c37565b50505083810382850152610c708186610bdf565b9695505050505050565b6000815180845260005b81811015610ca057602081850181015186830182015201610c84565b506000602082860101526020601f19601f83011685010191505092915050565b600081518084526020808501945080840160005b83811015610c0f5781516001600160a01b031687529582019590820190600101610cd4565b80516001600160a01b0316825260006101206020830151816020860152610d2282860182610c7a565b91505060408301518482036040860152610d3c8282610c7a565b915050606083015160608501526080830151608085015260a083015160a085015260c083015184820360c0860152610d748282610c7a565b91505060e083015184820360e0860152610d8e8282610cc0565b9150506101008084015185830382870152610c708382610bdf565b602081526000610dbc6020830184610cf9565b9392505050565b634e487b7160e01b600052604160045260246000fd5b600082601f830112610dea57600080fd5b813567ffffffffffffffff80821115610e0557610e05610dc3565b604051601f8301601f19908116603f01168101908282118183101715610e2d57610e2d610dc3565b81604052838152866020858801011115610e4657600080fd5b836020870160208301376000602085830101528094505050505092915050565b60008060008060008060c08789031215610e7f57600080fd5b86356001600160a01b0381168114610e9657600080fd5b9550602087013567ffffffffffffffff80821115610eb357600080fd5b610ebf8a838b01610dd9565b96506040890135915080821115610ed557600080fd5b610ee18a838b01610dd9565b9550606089013594506080890135935060a0890135915080821115610f0557600080fd5b50610f1289828a01610dd9565b9150509295509295509295565b6000602080830181845280855180835260408601915060408160051b870101925083870160005b82811015610f7457603f19888603018452610f62858351610cf9565b94509285019290850190600101610f46565b5092979650505050505050565b634e487b7160e01b600052601160045260246000fd5b80820180821115610faa57610faa610f81565b92915050565b600181811c90821680610fc457607f821691505b602082108103610b6b57634e487b7160e01b600052602260045260246000fd5b601f82111561102e57600081815260208120601f850160051c8101602086101561100b5750805b601f850160051c820191505b8181101561102a57828155600101611017565b5050505b505050565b815167ffffffffffffffff81111561104d5761104d610dc3565b6110618161105b8454610fb0565b84610fe4565b602080601f831160018114611096576000841561107e5750858301515b600019600386901b1c1916600185901b17855561102a565b600085815260208120601f198616915b828110156110c5578886015182559484019460019091019084016110a6565b50858210156110e35787850151600019600388901b60f8161c191681555b5050505050600190811b01905550565b8781526001600160a01b038716602082015260e06040820181905260009061111d90830188610c7a565b828103606084015261112f8188610c7a565b90508560808401528460a084015282810360c084015261114f8185610c7a565b9a9950505050505050505050565b60006001820161116f5761116f610f81565b5060010190565b81810381811115610faa57610faa610f81565b634e487b7160e01b600052603260045260246000fdfea26469706673582212205eaf3280ea5a0b0088113491f380b4b7adcda314081668b6c717011e2b6ec00064736f6c63430008130033",
    "linkReferences": {}
  },
  "methodIdentifiers": {
    "createCampaign(address,string,string,uint256,uint256,string)": "9943e3a1",
    "donateToCampaign(uint256)": "42a4fda8",
    "getCampaign(uint256)": "5598f8cc",
    "getCampaigns()": "a6b03633",
    "getDonators(uint256)": "0fa91fa9",
    "getMinDonation()": "d065bd72",
    "getNumberOfCampaigns()": "e4aafc2c"
  },
  "id": 20
}