{
  "abi": [
    {
      "inputs": [
        {
          "internalType": "uint256",
          "name": "_minDonation",
          "type": "uint256"
        }
      ],
      "stateMutability": "nonpayable",
      "type": "constructor"
    },
    {
      "inputs": [],
      "name": "CryptoStarter__DeadlineHasPassed",
      "type": "error"
    },
    {
      "inputs": [],
      "name": "CryptoStarter__DeadlineShouldBeAFutureDate",
      "type": "error"
    },
    {
      "inputs": [],
      "name": "CryptoStarter__MinimumDonationValueNotMet",
      "type": "error"
    },
    {
      "inputs": [],
      "name": "CryptoStarter__MinimumTargetValueNotMet",
      "type": "error"
    },
    {
      "inputs": [],
      "name": "CryptoStarter__OwnerCantDonateToOwnCampaign",
      "type": "error"
    },
    {
      "inputs": [],
      "name": "CryptoStarter__TransferFailed",
      "type": "error"
    },
    {
      "anonymous": false,
      "inputs": [
        {
          "indexed": false,
          "internalType": "uint256",
          "name": "id",
          "type": "uint256"
        },
        {
          "indexed": false,
          "internalType": "address",
          "name": "owner",
          "type": "address"
        },
        {
          "indexed": false,
          "internalType": "string",
          "name": "name",
          "type": "string"
        },
        {
          "indexed": false,
          "internalType": "string",
          "name": "title",
          "type": "string"
        },
        {
          "indexed": false,
          "internalType": "string",
          "name": "description",
          "type": "string"
        },
        {
          "indexed": false,
          "internalType": "uint256",
          "name": "target",
          "type": "uint256"
        },
        {
          "indexed": false,
          "internalType": "uint256",
          "name": "deadline",
          "type": "uint256"
        },
        {
          "indexed": false,
          "internalType": "string",
          "name": "image",
          "type": "string"
        }
      ],
      "name": "CreatedCampaign",
      "type": "event"
    },
    {
      "anonymous": false,
      "inputs": [
        {
          "indexed": false,
          "internalType": "uint256",
          "name": "id",
          "type": "uint256"
        },
        {
          "indexed": false,
          "internalType": "address",
          "name": "donator",
          "type": "address"
        },
        {
          "indexed": false,
          "internalType": "uint256",
          "name": "amount",
          "type": "uint256"
        }
      ],
      "name": "DonatedToCampaign",
      "type": "event"
    },
    {
      "inputs": [
        {
          "internalType": "address",
          "name": "_owner",
          "type": "address"
        },
        {
          "internalType": "string",
          "name": "_name",
          "type": "string"
        },
        {
          "internalType": "string",
          "name": "_title",
          "type": "string"
        },
        {
          "internalType": "string",
          "name": "_description",
          "type": "string"
        },
        {
          "internalType": "uint256",
          "name": "_target",
          "type": "uint256"
        },
        {
          "internalType": "uint256",
          "name": "_deadline",
          "type": "uint256"
        },
        {
          "internalType": "string",
          "name": "_image",
          "type": "string"
        }
      ],
      "name": "createCampaign",
      "outputs": [
        {
          "internalType": "uint256",
          "name": "",
          "type": "uint256"
        }
      ],
      "stateMutability": "nonpayable",
      "type": "function"
    },
    {
      "inputs": [
        {
          "internalType": "uint256",
          "name": "_id",
          "type": "uint256"
        }
      ],
      "name": "donateToCampaign",
      "outputs": [],
      "stateMutability": "payable",
      "type": "function"
    },
    {
      "inputs": [
        {
          "internalType": "uint256",
          "name": "_id",
          "type": "uint256"
        }
      ],
      "name": "getCampaign",
      "outputs": [
        {
          "components": [
            {
              "internalType": "address",
              "name": "owner",
              "type": "address"
            },
            {
              "internalType": "string",
              "name": "name",
              "type": "string"
            },
            {
              "internalType": "string",
              "name": "title",
              "type": "string"
            },
            {
              "internalType": "string",
              "name": "description",
              "type": "string"
            },
            {
              "internalType": "uint256",
              "name": "target",
              "type": "uint256"
            },
            {
              "internalType": "uint256",
              "name": "deadline",
              "type": "uint256"
            },
            {
              "internalType": "uint256",
              "name": "amountCollected",
              "type": "uint256"
            },
            {
              "internalType": "string",
              "name": "image",
              "type": "string"
            },
            {
              "internalType": "address[]",
              "name": "donators",
              "type": "address[]"
            },
            {
              "internalType": "uint256[]",
              "name": "donations",
              "type": "uint256[]"
            }
          ],
          "internalType": "struct CryptoStarter.Campaign",
          "name": "",
          "type": "tuple"
        }
      ],
      "stateMutability": "view",
      "type": "function"
    },
    {
      "inputs": [],
      "name": "getCampaigns",
      "outputs": [
        {
          "components": [
            {
              "internalType": "address",
              "name": "owner",
              "type": "address"
            },
            {
              "internalType": "string",
              "name": "name",
              "type": "string"
            },
            {
              "internalType": "string",
              "name": "title",
              "type": "string"
            },
            {
              "internalType": "string",
              "name": "description",
              "type": "string"
            },
            {
              "internalType": "uint256",
              "name": "target",
              "type": "uint256"
            },
            {
              "internalType": "uint256",
              "name": "deadline",
              "type": "uint256"
            },
            {
              "internalType": "uint256",
              "name": "amountCollected",
              "type": "uint256"
            },
            {
              "internalType": "string",
              "name": "image",
              "type": "string"
            },
            {
              "internalType": "address[]",
              "name": "donators",
              "type": "address[]"
            },
            {
              "internalType": "uint256[]",
              "name": "donations",
              "type": "uint256[]"
            }
          ],
          "internalType": "struct CryptoStarter.Campaign[]",
          "name": "",
          "type": "tuple[]"
        }
      ],
      "stateMutability": "view",
      "type": "function"
    },
    {
      "inputs": [
        {
          "internalType": "uint256",
          "name": "_id",
          "type": "uint256"
        }
      ],
      "name": "getDonators",
      "outputs": [
        {
          "internalType": "address[]",
          "name": "",
          "type": "address[]"
        },
        {
          "internalType": "uint256[]",
          "name": "",
          "type": "uint256[]"
        }
      ],
      "stateMutability": "view",
      "type": "function"
    },
    {
      "inputs": [],
      "name": "getMinDonation",
      "outputs": [
        {
          "internalType": "uint256",
          "name": "",
          "type": "uint256"
        }
      ],
      "stateMutability": "view",
      "type": "function"
    },
    {
      "inputs": [],
      "name": "getNumberOfCampaigns",
      "outputs": [
        {
          "internalType": "uint256",
          "name": "",
          "type": "uint256"
        }
      ],
      "stateMutability": "view",
      "type": "function"
    }
  ],
  "bytecode": {
    "object": "0x60a060405234801561001057600080fd5b506040516113f33803806113f383398101604081905261002f91610037565b608052610050565b60006020828403121561004957600080fd5b5051919050565b60805161137a6100796000396000818161014d015281816102570152610787015261137a6000f3fe6080604052600436106100705760003560e01c80637660be5d1161004e5780637660be5d146100ee578063a6b036331461011c578063d065bd721461013e578063e4aafc2c1461017157600080fd5b80630fa91fa91461007557806342a4fda8146100ac5780635598f8cc146100c1575b600080fd5b34801561008157600080fd5b50610095610090366004610d03565b610186565b6040516100a3929190610d57565b60405180910390f35b6100bf6100ba366004610d03565b610255565b005b3480156100cd57600080fd5b506100e16100dc366004610d03565b610408565b6040516100a39190610f02565b3480156100fa57600080fd5b5061010e610109366004610fdb565b610762565b6040519081526020016100a3565b34801561012857600080fd5b506101316108b8565b6040516100a391906110ac565b34801561014a57600080fd5b507f000000000000000000000000000000000000000000000000000000000000000061010e565b34801561017d57600080fd5b5060015461010e565b600081815260208181526040918290206008810180548451818502810185019095528085526060948594929360090192909184918301828280156101f357602002820191906000526020600020905b81546001600160a01b031681526001909101906020018083116101d5575b505050505091508080548060200260200160405190810160405280929190818152602001828054801561024557602002820191906000526020600020905b815481526020019060010190808311610231575b5050505050905091509150915091565b7f00000000000000000000000000000000000000000000000000000000000000003410156102965760405163209ad3bd60e21b815260040160405180910390fd5b60008181526020819052604090208054336001600160a01b03909116036102d0576040516355b7f21960e11b815260040160405180910390fd5b42816005015410156102f557604051631fda7f5b60e01b815260040160405180910390fd5b600881018054600181810183556000928352602080842090920180546001600160a01b03191633179055600984018054918201815583529082203491018190556006830180549192839261034a908490611124565b9091555050604080518481523360208201529081018290527f2d90734dbfcbd1befaf912bb776f674b80987078f74057f2115bef12584db3619060600160405180910390a181546040516000916001600160a01b03169083908381818185875af1925050503d80600081146103db576040519150601f19603f3d011682016040523d82523d6000602084013e6103e0565b606091505b505090508061040257604051632f1f472f60e11b815260040160405180910390fd5b50505050565b610410610ca7565b600082815260208181526040918290208251610140810190935280546001600160a01b03168352600181018054919284019161044b9061113d565b80601f01602080910402602001604051908101604052809291908181526020018280546104779061113d565b80156104c45780601f10610499576101008083540402835291602001916104c4565b820191906000526020600020905b8154815290600101906020018083116104a757829003601f168201915b505050505081526020016002820180546104dd9061113d565b80601f01602080910402602001604051908101604052809291908181526020018280546105099061113d565b80156105565780601f1061052b57610100808354040283529160200191610556565b820191906000526020600020905b81548152906001019060200180831161053957829003601f168201915b5050505050815260200160038201805461056f9061113d565b80601f016020809104026020016040519081016040528092919081815260200182805461059b9061113d565b80156105e85780601f106105bd576101008083540402835291602001916105e8565b820191906000526020600020905b8154815290600101906020018083116105cb57829003601f168201915b5050505050815260200160048201548152602001600582015481526020016006820154815260200160078201805461061f9061113d565b80601f016020809104026020016040519081016040528092919081815260200182805461064b9061113d565b80156106985780601f1061066d57610100808354040283529160200191610698565b820191906000526020600020905b81548152906001019060200180831161067b57829003601f168201915b50505050508152602001600882018054806020026020016040519081016040528092919081815260200182805480156106fa57602002820191906000526020600020905b81546001600160a01b031681526001909101906020018083116106dc575b505050505081526020016009820180548060200260200160405190810160405280929190818152602001828054801561075257602002820191906000526020600020905b81548152602001906001019080831161073e575b5050505050815250509050919050565b6000428310156107855760405163460ac36160e01b815260040160405180910390fd5b7f00000000000000000000000000000000000000000000000000000000000000008410156107c65760405163abf72f4560e01b815260040160405180910390fd5b60018054600090815260208190526040902080546001600160a01b0319166001600160a01b038b161781559081016107fe89826111c0565b506002810161080d88826111c0565b506003810161081c87826111c0565b506004810185905560058101849055600060068201556007810161084084826111c0565b507f21abfa67ce92e8913211cce6ebe346764f2da137a0dff8a0d0ede7dec3333a916001548a8a8a8a8a8a8a604051610880989796959493929190611280565b60405180910390a16001805490600061089883611302565b9190505550600180546108ab919061131b565b9998505050505050505050565b6060600060015467ffffffffffffffff8111156108d7576108d7610f38565b60405190808252806020026020018201604052801561091057816020015b6108fd610ca7565b8152602001906001900390816108f55790505b50905060005b600154811015610ca157600081815260208181526040918290208251610140810190935280546001600160a01b03168352600181018054919392849290840191906109609061113d565b80601f016020809104026020016040519081016040528092919081815260200182805461098c9061113d565b80156109d95780601f106109ae576101008083540402835291602001916109d9565b820191906000526020600020905b8154815290600101906020018083116109bc57829003601f168201915b505050505081526020016002820180546109f29061113d565b80601f0160208091040260200160405190810160405280929190818152602001828054610a1e9061113d565b8015610a6b5780601f10610a4057610100808354040283529160200191610a6b565b820191906000526020600020905b815481529060010190602001808311610a4e57829003601f168201915b50505050508152602001600382018054610a849061113d565b80601f0160208091040260200160405190810160405280929190818152602001828054610ab09061113d565b8015610afd5780601f10610ad257610100808354040283529160200191610afd565b820191906000526020600020905b815481529060010190602001808311610ae057829003601f168201915b50505050508152602001600482015481526020016005820154815260200160068201548152602001600782018054610b349061113d565b80601f0160208091040260200160405190810160405280929190818152602001828054610b609061113d565b8015610bad5780601f10610b8257610100808354040283529160200191610bad565b820191906000526020600020905b815481529060010190602001808311610b9057829003601f168201915b5050505050815260200160088201805480602002602001604051908101604052809291908181526020018280548015610c0f57602002820191906000526020600020905b81546001600160a01b03168152600190910190602001808311610bf1575b5050505050815260200160098201805480602002602001604051908101604052809291908181526020018280548015610c6757602002820191906000526020600020905b815481526020019060010190808311610c53575b505050505081525050838381518110610c8257610c8261132e565b6020026020010181905250508080610c9990611302565b915050610916565b50919050565b60405180610140016040528060006001600160a01b031681526020016060815260200160608152602001606081526020016000815260200160008152602001600081526020016060815260200160608152602001606081525090565b600060208284031215610d1557600080fd5b5035919050565b600081518084526020808501945080840160005b83811015610d4c57815187529582019590820190600101610d30565b509495945050505050565b604080825283519082018190526000906020906060840190828701845b82811015610d995781516001600160a01b031684529284019290840190600101610d74565b50505083810382850152610dad8186610d1c565b9695505050505050565b6000815180845260005b81811015610ddd57602081850181015186830182015201610dc1565b506000602082860101526020601f19601f83011685010191505092915050565b600081518084526020808501945080840160005b83811015610d4c5781516001600160a01b031687529582019590820190600101610e11565b80516001600160a01b0316825260006101406020830151816020860152610e5f82860182610db7565b91505060408301518482036040860152610e798282610db7565b91505060608301518482036060860152610e938282610db7565b9150506080830151608085015260a083015160a085015260c083015160c085015260e083015184820360e0860152610ecb8282610db7565b9150506101008084015185830382870152610ee68382610dfd565b925050506101208084015185830382870152610dad8382610d1c565b602081526000610f156020830184610e36565b9392505050565b80356001600160a01b0381168114610f3357600080fd5b919050565b634e487b7160e01b600052604160045260246000fd5b600082601f830112610f5f57600080fd5b813567ffffffffffffffff80821115610f7a57610f7a610f38565b604051601f8301601f19908116603f01168101908282118183101715610fa257610fa2610f38565b81604052838152866020858801011115610fbb57600080fd5b836020870160208301376000602085830101528094505050505092915050565b600080600080600080600060e0888a031215610ff657600080fd5b610fff88610f1c565b9650602088013567ffffffffffffffff8082111561101c57600080fd5b6110288b838c01610f4e565b975060408a013591508082111561103e57600080fd5b61104a8b838c01610f4e565b965060608a013591508082111561106057600080fd5b61106c8b838c01610f4e565b955060808a0135945060a08a0135935060c08a013591508082111561109057600080fd5b5061109d8a828b01610f4e565b91505092959891949750929550565b6000602080830181845280855180835260408601915060408160051b870101925083870160005b8281101561110157603f198886030184526110ef858351610e36565b945092850192908501906001016110d3565b5092979650505050505050565b634e487b7160e01b600052601160045260246000fd5b808201808211156111375761113761110e565b92915050565b600181811c9082168061115157607f821691505b602082108103610ca157634e487b7160e01b600052602260045260246000fd5b601f8211156111bb57600081815260208120601f850160051c810160208610156111985750805b601f850160051c820191505b818110156111b7578281556001016111a4565b5050505b505050565b815167ffffffffffffffff8111156111da576111da610f38565b6111ee816111e8845461113d565b84611171565b602080601f831160018114611223576000841561120b5750858301515b600019600386901b1c1916600185901b1785556111b7565b600085815260208120601f198616915b8281101561125257888601518255948401946001909101908401611233565b50858210156112705787850151600019600388901b60f8161c191681555b5050505050600190811b01905550565b8881526001600160a01b0388166020820152610100604082018190526000906112ab8382018a610db7565b905082810360608401526112bf8189610db7565b905082810360808401526112d38188610db7565b90508560a08401528460c084015282810360e08401526112f38185610db7565b9b9a5050505050505050505050565b6000600182016113145761131461110e565b5060010190565b818103818111156111375761113761110e565b634e487b7160e01b600052603260045260246000fdfea26469706673582212209044c4b88f20ca8a3da8458766bf042be3b5d7546d0737325da14916eb81f18a64736f6c63430008130033",
    "linkReferences": {}
  },
  "methodIdentifiers": {
    "createCampaign(address,string,string,string,uint256,uint256,string)": "7660be5d",
    "donateToCampaign(uint256)": "42a4fda8",
    "getCampaign(uint256)": "5598f8cc",
    "getCampaigns()": "a6b03633",
    "getDonators(uint256)": "0fa91fa9",
    "getMinDonation()": "d065bd72",
    "getNumberOfCampaigns()": "e4aafc2c"
  },
  "id": 20
}