{
  "abi": [
    {
      "inputs": [
        {
          "internalType": "uint256",
          "name": "_minDonation",
          "type": "uint256"
        }
      ],
      "stateMutability": "nonpayable",
      "type": "constructor"
    },
    {
      "inputs": [],
      "name": "CryptoStarter__DeadlineHasPassed",
      "type": "error"
    },
    {
      "inputs": [],
      "name": "CryptoStarter__DeadlineShouldBeAFutureDate",
      "type": "error"
    },
    {
      "inputs": [],
      "name": "CryptoStarter__MinimumDonationValueNotMet",
      "type": "error"
    },
    {
      "inputs": [],
      "name": "CryptoStarter__MinimumTargetValueNotMet",
      "type": "error"
    },
    {
      "inputs": [],
      "name": "CryptoStarter__OwnerCantDonateToOwnCampaign",
      "type": "error"
    },
    {
      "inputs": [],
      "name": "CryptoStarter__TransferFailed",
      "type": "error"
    },
    {
      "anonymous": false,
      "inputs": [
        {
          "indexed": false,
          "internalType": "uint256",
          "name": "id",
          "type": "uint256"
        },
        {
          "indexed": false,
          "internalType": "address",
          "name": "owner",
          "type": "address"
        },
        {
          "indexed": false,
          "internalType": "string",
          "name": "name",
          "type": "string"
        },
        {
          "indexed": false,
          "internalType": "string",
          "name": "title",
          "type": "string"
        },
        {
          "indexed": false,
          "internalType": "string",
          "name": "description",
          "type": "string"
        },
        {
          "indexed": false,
          "internalType": "uint256",
          "name": "target",
          "type": "uint256"
        },
        {
          "indexed": false,
          "internalType": "uint256",
          "name": "deadline",
          "type": "uint256"
        },
        {
          "indexed": false,
          "internalType": "string",
          "name": "image",
          "type": "string"
        }
      ],
      "name": "CreatedCampaign",
      "type": "event"
    },
    {
      "anonymous": false,
      "inputs": [
        {
          "indexed": false,
          "internalType": "uint256",
          "name": "id",
          "type": "uint256"
        },
        {
          "indexed": false,
          "internalType": "address",
          "name": "donator",
          "type": "address"
        },
        {
          "indexed": false,
          "internalType": "uint256",
          "name": "amount",
          "type": "uint256"
        }
      ],
      "name": "DonatedToCampaign",
      "type": "event"
    },
    {
      "inputs": [
        {
          "internalType": "address",
          "name": "_owner",
          "type": "address"
        },
        {
          "internalType": "string",
          "name": "_name",
          "type": "string"
        },
        {
          "internalType": "string",
          "name": "_title",
          "type": "string"
        },
        {
          "internalType": "string",
          "name": "_description",
          "type": "string"
        },
        {
          "internalType": "uint256",
          "name": "_target",
          "type": "uint256"
        },
        {
          "internalType": "uint256",
          "name": "_deadline",
          "type": "uint256"
        },
        {
          "internalType": "string",
          "name": "_image",
          "type": "string"
        }
      ],
      "name": "createCampaign",
      "outputs": [
        {
          "internalType": "uint256",
          "name": "",
          "type": "uint256"
        }
      ],
      "stateMutability": "nonpayable",
      "type": "function"
    },
    {
      "inputs": [
        {
          "internalType": "uint256",
          "name": "_id",
          "type": "uint256"
        }
      ],
      "name": "donateToCampaign",
      "outputs": [],
      "stateMutability": "payable",
      "type": "function"
    },
    {
      "inputs": [
        {
          "internalType": "uint256",
          "name": "_id",
          "type": "uint256"
        }
      ],
      "name": "getCampaign",
      "outputs": [
        {
          "components": [
            {
              "internalType": "uint256",
              "name": "id",
              "type": "uint256"
            },
            {
              "internalType": "address",
              "name": "owner",
              "type": "address"
            },
            {
              "internalType": "string",
              "name": "name",
              "type": "string"
            },
            {
              "internalType": "string",
              "name": "title",
              "type": "string"
            },
            {
              "internalType": "string",
              "name": "description",
              "type": "string"
            },
            {
              "internalType": "uint256",
              "name": "target",
              "type": "uint256"
            },
            {
              "internalType": "uint256",
              "name": "deadline",
              "type": "uint256"
            },
            {
              "internalType": "uint256",
              "name": "amountCollected",
              "type": "uint256"
            },
            {
              "internalType": "string",
              "name": "image",
              "type": "string"
            },
            {
              "internalType": "address[]",
              "name": "donators",
              "type": "address[]"
            },
            {
              "internalType": "uint256[]",
              "name": "donations",
              "type": "uint256[]"
            }
          ],
          "internalType": "struct CryptoStarter.Campaign",
          "name": "",
          "type": "tuple"
        }
      ],
      "stateMutability": "view",
      "type": "function"
    },
    {
      "inputs": [],
      "name": "getCampaigns",
      "outputs": [
        {
          "components": [
            {
              "internalType": "uint256",
              "name": "id",
              "type": "uint256"
            },
            {
              "internalType": "address",
              "name": "owner",
              "type": "address"
            },
            {
              "internalType": "string",
              "name": "name",
              "type": "string"
            },
            {
              "internalType": "string",
              "name": "title",
              "type": "string"
            },
            {
              "internalType": "string",
              "name": "description",
              "type": "string"
            },
            {
              "internalType": "uint256",
              "name": "target",
              "type": "uint256"
            },
            {
              "internalType": "uint256",
              "name": "deadline",
              "type": "uint256"
            },
            {
              "internalType": "uint256",
              "name": "amountCollected",
              "type": "uint256"
            },
            {
              "internalType": "string",
              "name": "image",
              "type": "string"
            },
            {
              "internalType": "address[]",
              "name": "donators",
              "type": "address[]"
            },
            {
              "internalType": "uint256[]",
              "name": "donations",
              "type": "uint256[]"
            }
          ],
          "internalType": "struct CryptoStarter.Campaign[]",
          "name": "",
          "type": "tuple[]"
        }
      ],
      "stateMutability": "view",
      "type": "function"
    },
    {
      "inputs": [
        {
          "internalType": "uint256",
          "name": "_id",
          "type": "uint256"
        }
      ],
      "name": "getDonators",
      "outputs": [
        {
          "internalType": "address[]",
          "name": "",
          "type": "address[]"
        },
        {
          "internalType": "uint256[]",
          "name": "",
          "type": "uint256[]"
        }
      ],
      "stateMutability": "view",
      "type": "function"
    },
    {
      "inputs": [],
      "name": "getMinDonation",
      "outputs": [
        {
          "internalType": "uint256",
          "name": "",
          "type": "uint256"
        }
      ],
      "stateMutability": "view",
      "type": "function"
    },
    {
      "inputs": [],
      "name": "getNumberOfCampaigns",
      "outputs": [
        {
          "internalType": "uint256",
          "name": "",
          "type": "uint256"
        }
      ],
      "stateMutability": "view",
      "type": "function"
    }
  ],
  "bytecode": {
    "object": "0x60a060405234801561001057600080fd5b5060405161143338038061143383398101604081905261002f91610037565b608052610050565b60006020828403121561004957600080fd5b5051919050565b6080516113ba6100796000396000818161014d01528181610257015261079b01526113ba6000f3fe6080604052600436106100705760003560e01c80637660be5d1161004e5780637660be5d146100ee578063a6b036331461011c578063d065bd721461013e578063e4aafc2c1461017157600080fd5b80630fa91fa91461007557806342a4fda8146100ac5780635598f8cc146100c1575b600080fd5b34801561008157600080fd5b50610095610090366004610d2f565b610186565b6040516100a3929190610d83565b60405180910390f35b6100bf6100ba366004610d2f565b610255565b005b3480156100cd57600080fd5b506100e16100dc366004610d2f565b61040e565b6040516100a39190610f42565b3480156100fa57600080fd5b5061010e61010936600461101b565b610776565b6040519081526020016100a3565b34801561012857600080fd5b506101316108d3565b6040516100a391906110ec565b34801561014a57600080fd5b507f000000000000000000000000000000000000000000000000000000000000000061010e565b34801561017d57600080fd5b5060015461010e565b6000818152602081815260409182902060098101805484518185028101850190955280855260609485949293600a0192909184918301828280156101f357602002820191906000526020600020905b81546001600160a01b031681526001909101906020018083116101d5575b505050505091508080548060200260200160405190810160405280929190818152602001828054801561024557602002820191906000526020600020905b815481526020019060010190808311610231575b5050505050905091509150915091565b7f00000000000000000000000000000000000000000000000000000000000000003410156102965760405163209ad3bd60e21b815260040160405180910390fd5b60008181526020819052604090206001810154336001600160a01b03909116036102d3576040516355b7f21960e11b815260040160405180910390fd5b42816006015410156102f857604051631fda7f5b60e01b815260040160405180910390fd5b600981018054600181810183556000928352602080842090920180546001600160a01b03191633179055600a84018054918201815583529082203491018190556007830180549192839261034d908490611164565b9091555050604080518481523360208201529081018290527f2d90734dbfcbd1befaf912bb776f674b80987078f74057f2115bef12584db3619060600160405180910390a160018201546040516000916001600160a01b03169083908381818185875af1925050503d80600081146103e1576040519150601f19603f3d011682016040523d82523d6000602084013e6103e6565b606091505b505090508061040857604051632f1f472f60e11b815260040160405180910390fd5b50505050565b610416610ccc565b600082815260208181526040918290208251610160810184528154815260018201546001600160a01b031692810192909252600281018054929391929184019161045f9061117d565b80601f016020809104026020016040519081016040528092919081815260200182805461048b9061117d565b80156104d85780601f106104ad576101008083540402835291602001916104d8565b820191906000526020600020905b8154815290600101906020018083116104bb57829003601f168201915b505050505081526020016003820180546104f19061117d565b80601f016020809104026020016040519081016040528092919081815260200182805461051d9061117d565b801561056a5780601f1061053f5761010080835404028352916020019161056a565b820191906000526020600020905b81548152906001019060200180831161054d57829003601f168201915b505050505081526020016004820180546105839061117d565b80601f01602080910402602001604051908101604052809291908181526020018280546105af9061117d565b80156105fc5780601f106105d1576101008083540402835291602001916105fc565b820191906000526020600020905b8154815290600101906020018083116105df57829003601f168201915b505050505081526020016005820154815260200160068201548152602001600782015481526020016008820180546106339061117d565b80601f016020809104026020016040519081016040528092919081815260200182805461065f9061117d565b80156106ac5780601f10610681576101008083540402835291602001916106ac565b820191906000526020600020905b81548152906001019060200180831161068f57829003601f168201915b505050505081526020016009820180548060200260200160405190810160405280929190818152602001828054801561070e57602002820191906000526020600020905b81546001600160a01b031681526001909101906020018083116106f0575b50505050508152602001600a820180548060200260200160405190810160405280929190818152602001828054801561076657602002820191906000526020600020905b815481526020019060010190808311610752575b5050505050815250509050919050565b6000428310156107995760405163460ac36160e01b815260040160405180910390fd5b7f00000000000000000000000000000000000000000000000000000000000000008410156107da5760405163abf72f4560e01b815260040160405180910390fd5b60018054600081815260208190526040902090815590810180546001600160a01b0319166001600160a01b038b16179055600281016108198982611200565b50600381016108288882611200565b50600481016108378782611200565b506005810185905560068101849055600060078201556008810161085b8482611200565b507f21abfa67ce92e8913211cce6ebe346764f2da137a0dff8a0d0ede7dec3333a916001548a8a8a8a8a8a8a60405161089b9897969594939291906112c0565b60405180910390a1600180549060006108b383611342565b9190505550600180546108c6919061135b565b9998505050505050505050565b6060600060015467ffffffffffffffff8111156108f2576108f2610f78565b60405190808252806020026020018201604052801561092b57816020015b610918610ccc565b8152602001906001900390816109105790505b50905060005b600154811015610cc657600081815260208181526040918290208251610160810184528154815260018201546001600160a01b0316928101929092526002810180549193849290840191906109859061117d565b80601f01602080910402602001604051908101604052809291908181526020018280546109b19061117d565b80156109fe5780601f106109d3576101008083540402835291602001916109fe565b820191906000526020600020905b8154815290600101906020018083116109e157829003601f168201915b50505050508152602001600382018054610a179061117d565b80601f0160208091040260200160405190810160405280929190818152602001828054610a439061117d565b8015610a905780601f10610a6557610100808354040283529160200191610a90565b820191906000526020600020905b815481529060010190602001808311610a7357829003601f168201915b50505050508152602001600482018054610aa99061117d565b80601f0160208091040260200160405190810160405280929190818152602001828054610ad59061117d565b8015610b225780601f10610af757610100808354040283529160200191610b22565b820191906000526020600020905b815481529060010190602001808311610b0557829003601f168201915b50505050508152602001600582015481526020016006820154815260200160078201548152602001600882018054610b599061117d565b80601f0160208091040260200160405190810160405280929190818152602001828054610b859061117d565b8015610bd25780601f10610ba757610100808354040283529160200191610bd2565b820191906000526020600020905b815481529060010190602001808311610bb557829003601f168201915b5050505050815260200160098201805480602002602001604051908101604052809291908181526020018280548015610c3457602002820191906000526020600020905b81546001600160a01b03168152600190910190602001808311610c16575b50505050508152602001600a8201805480602002602001604051908101604052809291908181526020018280548015610c8c57602002820191906000526020600020905b815481526020019060010190808311610c78575b505050505081525050838381518110610ca757610ca761136e565b6020026020010181905250508080610cbe90611342565b915050610931565b50919050565b6040518061016001604052806000815260200160006001600160a01b031681526020016060815260200160608152602001606081526020016000815260200160008152602001600081526020016060815260200160608152602001606081525090565b600060208284031215610d4157600080fd5b5035919050565b600081518084526020808501945080840160005b83811015610d7857815187529582019590820190600101610d5c565b509495945050505050565b604080825283519082018190526000906020906060840190828701845b82811015610dc55781516001600160a01b031684529284019290840190600101610da0565b50505083810382850152610dd98186610d48565b9695505050505050565b6000815180845260005b81811015610e0957602081850181015186830182015201610ded565b506000602082860101526020601f19601f83011685010191505092915050565b600081518084526020808501945080840160005b83811015610d785781516001600160a01b031687529582019590820190600101610e3d565b6000610160825184526020830151610e8560208601826001600160a01b03169052565b506040830151816040860152610e9d82860182610de3565b91505060608301518482036060860152610eb78282610de3565b91505060808301518482036080860152610ed18282610de3565b91505060a083015160a085015260c083015160c085015260e083015160e08501526101008084015185830382870152610f0a8382610de3565b925050506101208084015185830382870152610f268382610e29565b925050506101408084015185830382870152610dd98382610d48565b602081526000610f556020830184610e62565b9392505050565b80356001600160a01b0381168114610f7357600080fd5b919050565b634e487b7160e01b600052604160045260246000fd5b600082601f830112610f9f57600080fd5b813567ffffffffffffffff80821115610fba57610fba610f78565b604051601f8301601f19908116603f01168101908282118183101715610fe257610fe2610f78565b81604052838152866020858801011115610ffb57600080fd5b836020870160208301376000602085830101528094505050505092915050565b600080600080600080600060e0888a03121561103657600080fd5b61103f88610f5c565b9650602088013567ffffffffffffffff8082111561105c57600080fd5b6110688b838c01610f8e565b975060408a013591508082111561107e57600080fd5b61108a8b838c01610f8e565b965060608a01359150808211156110a057600080fd5b6110ac8b838c01610f8e565b955060808a0135945060a08a0135935060c08a01359150808211156110d057600080fd5b506110dd8a828b01610f8e565b91505092959891949750929550565b6000602080830181845280855180835260408601915060408160051b870101925083870160005b8281101561114157603f1988860301845261112f858351610e62565b94509285019290850190600101611113565b5092979650505050505050565b634e487b7160e01b600052601160045260246000fd5b808201808211156111775761117761114e565b92915050565b600181811c9082168061119157607f821691505b602082108103610cc657634e487b7160e01b600052602260045260246000fd5b601f8211156111fb57600081815260208120601f850160051c810160208610156111d85750805b601f850160051c820191505b818110156111f7578281556001016111e4565b5050505b505050565b815167ffffffffffffffff81111561121a5761121a610f78565b61122e81611228845461117d565b846111b1565b602080601f831160018114611263576000841561124b5750858301515b600019600386901b1c1916600185901b1785556111f7565b600085815260208120601f198616915b8281101561129257888601518255948401946001909101908401611273565b50858210156112b05787850151600019600388901b60f8161c191681555b5050505050600190811b01905550565b8881526001600160a01b0388166020820152610100604082018190526000906112eb8382018a610de3565b905082810360608401526112ff8189610de3565b905082810360808401526113138188610de3565b90508560a08401528460c084015282810360e08401526113338185610de3565b9b9a5050505050505050505050565b6000600182016113545761135461114e565b5060010190565b818103818111156111775761117761114e565b634e487b7160e01b600052603260045260246000fdfea264697066735822122070fc35840eaa624482dcdbb0496e8fbe2d19c24c8dd74a374b76b1c96b629e0e64736f6c63430008130033",
    "linkReferences": {}
  },
  "methodIdentifiers": {
    "createCampaign(address,string,string,string,uint256,uint256,string)": "7660be5d",
    "donateToCampaign(uint256)": "42a4fda8",
    "getCampaign(uint256)": "5598f8cc",
    "getCampaigns()": "a6b03633",
    "getDonators(uint256)": "0fa91fa9",
    "getMinDonation()": "d065bd72",
    "getNumberOfCampaigns()": "e4aafc2c"
  },
  "id": 20
}